:1000000012C022C021C020C01FC01EC01DC01CC005
:100010001BC01AC019C018C017C016C015C014C024
:1000200013C012C011C011241FBECFEDCDBF10E010
:10003000A0E6B0E0E6EBF1E002C005900D92A83634
:10004000B107D9F7A7D0B5C0DBCFBA9A81E880BF96
:1000500081E083BF80E886BF089549E150E008C091
:1000600020E137E2FA013197F1F721503040D1F722
:1000700001972FEF8F3F920799F708952AEF30E00D
:1000800003C0F9013197F1F701974FEF8F3F9407C4
:10009000C1F70895AC0186B790E0841795077CF00E
:1000A00016C086B78F5F86BFCB0103C0FD013197B5
:1000B000F1F701972FEF8F3F920719F0F7CFAAEFD3
:1000C000B0E086B790E0841795075CF3089586B793
:1000D00090E0481759077CF0089586B7815086BF95
:1000E000CB0103C0FD013197F1F701972FEF8F3F4F
:1000F000920719F0F7CFAAEFB0E086B790E0481763
:1001000059075CF3089560916400709165008091D7
:10011000600090916100BEDF83E090E09EDF8091FF
:1001200062009091630060E070E0B4DF0895609138
:100130006400709165008091600090916100AADF79
:1001400086E090E08ADF809162009091630060E039
:1001500070E0A0DF08958091620086BF83E090E0A8
:100160007CDF0895F8DFCFDFE2DFF5DFCCDFDFDF14
:10017000DEDFDDDFF0DFC7DFC6DFC5DFC4DFD7DFEF
:10018000EADFC1DFC0DFBFDFD2DFE5DFD0DFBBDF0B
:10019000BADF0895BA9A81E880BF81E083BF80E822
:1001A00086BF8AE090E059DFDDDF82E390E055DF33
:0601B000F8CFF894FFCF28
:0801B600C800640032000200E1
:00000001FF
