:1000000012C017C016C015C014C013C012C011C052
:1000100010C00FC00EC00DC00CC00BC00AC009C07C
:1000200008C007C006C011241FBECFEDCDBF5CD0F5
:1000300064C0E6CFBA9A81E880BF81E083BF80E8E0
:1000400086BF0895BB9A8FB580688FBD8EB58061DD
:100050008EBD8EB581608EBD80E197E295BD84BD79
:100060001BBC1ABC089549E150E009C020E137E209
:10007000FA013197F1F721503040D1F7815018162D
:10008000ACF308950F931F9308EC14E606BF81E0CC
:10009000EADF16BF81E0E7DFF9CF0F931F93CF931D
:1000A000DF9308ECC4EDD0E314E606BF06C0CE0132
:1000B0000197F1F786B7815086BF86B790E0853605
:1000C0009105ACF78AE0CFDF16BF06C0CE010197DD
:1000D000F1F786B78F5F86BF86B790E0883C9105C1
:1000E000ACF38AE0C0DFE1CFBA9A81E880BF81E05B
:0E00F00083BF80E886BFD1DF0895F894FFCF6C
:00000001FF
