:1000000012C022C021C020C01FC01EC01DC01CC005
:100010001BC01AC019C018C017C016C015C014C024
:1000200013C012C011C011241FBECFEDCDBF10E010
:10003000A0E6B0E0EEE4F2E002C005900D92A83632
:10004000B107D9F7F7D001C1DBCFBA9A81E880BFF9
:1000500081E083BF80E886BF089549E150E008C091
:1000600020E137E2FA013197F1F721503040D1F722
:1000700001972FEF8F3F920799F708952AEF30E00D
:1000800003C0F9013197F1F701974FEF8F3F9407C4
:10009000C1F70895AC0186B790E0841795077CF00E
:1000A00016C086B78F5F86BFCB0103C0FD013197B5
:1000B000F1F701972FEF8F3F920719F0F7CFAAEFD3
:1000C000B0E086B790E0841795075CF3089586B793
:1000D00090E0481759077CF0089586B7815086BF95
:1000E000CB0103C0FD013197F1F701972FEF8F3F4F
:1000F000920719F0F7CFAAEFB0E086B790E0481763
:1001000059075CF3089560916400709165008091D7
:10011000600090916100BEDF83E090E09EDF959AE1
:10012000809162009091630060E070E0B3DF83E053
:1001300090E093DF95980895609164007091650058
:100140008091600090916100A5DF86E090E085DFFE
:10015000959A809162009091630060E070E09ADF70
:1001600083E090E07ADF959808958091620086BFE1
:1001700083E090E072DF0895F8DFC5DFDDDFF5DFB3
:10018000C2DFDADFD9DFD8DFF0DFBDDFBCDFBBDF06
:10019000BADFD2DFEADFB7DFB6DFB5DFCDDFE5DF1D
:1001A000CBDFB1DFB0DF0895CF93DF93C5E0D0E0C0
:1001B00008C0959881E090E050DF959A81E090E04A
:1001C0004CDF21978FEFCF3FD80799F7DF91CF9181
:1001D0000895CF93DF93C5E0D0E00CC0809160001C
:1001E00086BF81E090E039DF8091620086BF81E0C8
:1001F00090E033DF21978FEFCF3FD80779F7DF917A
:10020000CF91089595980895959A08959598ADDFA2
:100210007ADF959A8EE190E020DFF8CF959A84E11D
:1002200090E01BDF9598A8DF959A84E190E015DFB8
:100230009598F4CFBA9A81E880BF81E083BF80E8C7
:0E02400086BFB2DFC6DFE2DF0895F894FFCF7D
:08024E00C80064003200020048
:00000001FF
