:1000000012C02AC029C028C027C026C025C045C0AC
:1000100023C022C021C020C01FC01EC01DC01CC0E4
:100020001BC01AC019C011241FBECFEDCDBF10E0F8
:10003000A0E6B0E0ECE2F3E002C005900D92AA3633
:10004000B107D9F710E0AAE6B0E001C01D92AF37C2
:10005000B107E1F75DD168C1D3CFBA9A81E880BF1B
:1000600081E083BF80E886BF089583E389B9579A0A
:10007000549A83B1866083B97894089580916A0018
:10008000843241F480916F00833421F480917300B5
:100090008093600010927E0008951F920F920FB619
:1000A0000F9211242F933F934F935F936F937F93FE
:1000B0008F939F93AF93BF93EF93FF939CB1943231
:1000C00011F410927E0080917E00843168F480915A
:1000D0007E00E82FFF27E7FDF095E659FF4F90835C
:1000E0008F5F80937E0001C0C9DFFF91EF91BF91C8
:1000F000AF919F918F917F916F915F914F913F91C0
:100100002F910F900FBE0F901F9018958091600057
:100110008837E1F390916000809160009817E1F3D7
:10012000089580916000803321F0809160008533D4
:10013000C1F7089548EC50E008C020E137E2FA0129
:100140003197F1F721503040D1F701972FEF8F3FD2
:10015000920799F7089520ED37E003C0F901319730
:10016000F1F701974FEF8F3F9407C1F70895AC0166
:1001700086B790E0841795077CF016C086B78F5F2E
:1001800086BFCB0103C0FD013197F1F701972FEF37
:100190008F3F920719F0F7CFA0EDB7E086B790E058
:1001A000841795075CF3089586B790E048175907C0
:1001B0007CF0089586B7815086BFCB0103C0FD0156
:1001C0003197F1F701972FEF8F3F920719F0F7CF93
:1001D000A0EDB7E086B790E0481759075CF30895A3
:1001E000609165007091660080916100909162005D
:1001F000BEDF83E090E09EDF959A8091630090914E
:10020000640060E070E0B3DF83E090E093DF9598F6
:1002100008956091650070916600809161009091F1
:100220006200A5DF86E090E085DF959A809163000B
:100230009091640060E070E09ADF83E090E07ADF04
:10024000959808958091630086BF83E090E072DF07
:100250000895F8DFC5DFDDDFF5DFC2DFDADFD9DFE4
:10026000D8DFF0DFBDDFBCDFBBDFBADFD2DFEADF24
:10027000B7DFB6DFB5DFCDDFE5DFCBDFB1DFB0DF86
:100280000895CF93DF93C5E0D0E008C0959881E052
:1002900090E050DF959A81E090E04CDF21978FEF5E
:1002A000CF3FD80799F7DF91CF910895CF93DF9390
:1002B000C5E0D0E00CC08091610086BF81E090E095
:1002C00039DF8091630086BF81E090E033DF2197C2
:1002D0008FEFCF3FD80779F7DF91CF910895FFCF08
:1002E00095980895959A08959598ACDF79DF959A39
:1002F0008EE190E01FDFF8CF80916000803321F025
:10030000809160008533C1F79598A3DF959AF4CF6B
:10031000BA9A81E880BF81E083BF80E886BFA5DE0E
:0C032000B0DFC4DFE9DF0895F894FFCFE0
:0A032C0078C80064003200020000EF
:00000001FF
