:1000000012C02AC029C028C027C026C025C045C0AC
:1000100023C022C021C020C01FC01EC01DC01CC0E4
:100020001BC01AC019C011241FBECFEDCDBF10E0F8
:10003000A0E6B0E0EAE2F3E002C005900D92AC3633
:10004000B107D9F710E0ACE6B0E001C01D92A138CD
:10005000B107E1F75ED167C1D3CFBA9A81E880BF1B
:1000600081E083BF80E886BF089583E389B9579A0A
:10007000549A83B1866083B97894089580916C0016
:10008000843241F480917100833421F480917600B0
:10009000809360001092800008951F920F920FB617
:1000A0000F9211242F933F934F935F936F937F93FE
:1000B0008F939F93AF93BF93EF93FF939CB1943231
:1000C00011F41092800080918000843168F4809156
:1000D0008000E82FFF27E7FDF095E459FF4F90835C
:1000E0008F5F8093800001C0C9DFFF91EF91BF91C6
:1000F000AF919F918F917F916F915F914F913F91C0
:100100002F910F900FBE0F901F9018958091600057
:10011000803321F0809160008533C1F7089580918C
:1001200060008033E1F7089548EC50E008C020E11A
:1001300037E2FA013197F1F721503040D1F70197BA
:100140002FEF8F3F920799F7089520ED37E003C016
:10015000F9013197F1F701974FEF8F3F9407C1F7FE
:100160000895AC0186B790E0841795077CF016C01F
:1001700086B78F5F86BFCB0103C0FD013197F1F7D2
:1001800001972FEF8F3F920719F0F7CFA0EDB7E05F
:1001900086B790E0841795075CF3089586B790E0E2
:1001A000481759077CF0089586B7815086BFCB0168
:1001B00003C0FD013197F1F701972FEF8F3F9207B1
:1001C00019F0F7CFA0EDB7E086B790E048175907D0
:1001D0005CF3089560916500709166008091610004
:1001E00090916200BEDF8091690090916A009CDF6F
:1001F000959A809163009091640060E070E0B1DFB7
:100200008091690090916A008FDF959808956091C0
:100210006500709166008091610090916200A1DF9D
:100220008091690090916A00880F991F7DDF959AEF
:10023000809163009091640060E070E092DF8091B3
:10024000690090916A0070DF95980895809163002D
:1002500086BF8091690090916A0066DF0895F6DF9D
:10026000B9DFD5DFF3DFB6DFD2DFD1DFD0DFEEDFFE
:10027000B1DFB0DFAFDFAEDFCADFE8DFABDFAADFC1
:10028000A9DFC5DFE3DFC3DFA5DFA4DF0895CF93D8
:10029000DF93C5E0D0E008C0959881E090E044DFAE
:1002A000959A81E090E040DF21978FEFCF3FD8070C
:1002B00099F7DF91CF910895CF93DF93C5E0D0E018
:1002C0000CC08091610086BF81E090E02DDF8091BD
:1002D000630086BF81E090E027DF21978FEFCF3F5B
:1002E000D80779F7DF91CF91089595980895959A59
:1002F00008959598ABDF6EDF959A8EE190E014DF5C
:10030000F8CF809160008033E1F79598A8DF959A47
:10031000F8CFBA9A81E880BF81E083BF80E886BFCA
:0A032000A4DEEFDF0895F894FFCF8C
:0C032A0078C800640032000200050000EA
:00000001FF
